S01700004C6F52615F41544D656761343830392E737265635C
S11300000C9450000C946D000C946D000C946D00D5
S11300100C946D000C946D000C946D000C946D00A8
S11300200C946D000C946D000C946D000C946D0098
S11300300C9479000C946D000C946D000C94860F54
S11300400C946D000C9465120C949C120C946D002D
S11300500C946D000C946D000C946D000C946D0068
S11300600C946D000C946D000C946D000C946D0058
S11300700C946D000C946D000C946D000C946D0048
S11300800C946D000C946D000C946D000C946D0038
S11300900C946D000C94B7130C94EE130C946D0037
S11300A011241FBECFEFCDBFDFE3DEBF18E2A0E017
S11300B0B8E2EBEDF4E302C005900D92A834B10769
S11300C0D9F729E2A8E4B8E201C01D92A43FB2071F
S11300D0E1F70E9403030C94EB190C940000CF93F6
S11300E0DF93CDB7DEB70E94160B0000DF91CF91EE
S11300F008951F920F9200903F000F9211242F93A6
S11301008F939F93EF93FF93CF93DF93CDB7DEB796
S113011080E89AE021E0FC0126830000DF91CF9182
S1130120FF91EF919F918F912F910F9000923F003B
S11301300F901F901895CF93DF9300D000D0CDB7C8
S1130140DEB789839A836B837C838C818F938B81C5
S11301508F938A818F9389818F938AED93E7892F77
S11301608F938AED93E78F931F9284E68F9384EFA6
S113017098E2892F8F9384EF98E28F930E94F91667
S11301808DB79EB70A96CDBFDEBF00002496CDBFC3
S1130190DEBFDF91CF910895CF93DF9300D000D0DD
S11301A0CDB7DEB789839A836B837C832B813C81B3
S11301B089819A81B9010E949B0084EF98E20E9490
S11301C0990B84EF98E2892F8F9384EF98E28F93B1
S11301D080EE93E7892F8F9380EE93E78F930E94AD
S11301E0E3160F900F900F900F900E9400010E9451
S11301F0F21000002496CDBFDEBFDF91CF910895A9
S1130200CF93DF93CDB7DEB780917C28882F90E021
S113021001978358974DFC0180818A30A9F70E9489
S11302200D1143E250E0BC018CEC98E20E94D4161C
S11302308CEC98E2892F8F938CEC98E28F9380EE6C
S113024093E7892F8F9380EE93E78F930E94E316B1
S11302500F900F900F900F900000DF91CF910895B1
S1130260CF93DF9300D0CDB7DEB789839A830E9402
S1130270F21089819A810E94990B8A818F938981D6
S11302808F9380EE93E7892F8F9380EE93E78F937C
S11302900E94E3160F900F900F900F900E940001A0
S11302A063EE73E78CEC98E20E94C416892B21F468
S11302B088EE93E00E94161160EF73E78CEC98E2ED
S11302C00E94C416892B99F600000F900F90DF91BD
S11302D0CF910895CF93DF93CDB7DEB70E94E51099
S11302E082E090E00E94161180E00E948B0B82E075
S11302F090E00E94161181E00E948B0B8FE090E049
S11303000E9416110E9400010E94F21089EA94E7EB
S1130310892F8F9389EA94E78F9381EA94E7892F51
S11303208F9381EA94E78F938AED93E7892F8F93D4
S11303308AED93E78F931F9284E68F9384EF98E27C
S1130340892F8F9384EF98E28F930E94F9168DB7CB
S11303509EB70A96CDBFDEBF84EF98E2892F8F93B4
S113036084EF98E28F930E94E3160F900F9084EF2E
S113037098E20E94990B82E090E00E9416110E947C
S113038000010E94F21063E274E786E694E70E949B
S1130390CC0064E374E785E794E70E94CC0065E44D
S11303A074E784E894E70E94CC008EEB94E70E9403
S11303B0990B8EEB94E7892F8F938EEB94E78F93B1
S11303C085EF93E7892F8F9385EF93E78F930E94AF
S11303D0E3160F900F900F900F9082E090E00E9430
S11303E016110E9400010E94F21085EB94E70E940E
S11303F0990B85EB94E7892F8F9385EB94E78F9383
S113040080EE93E7892F8F9380EE93E78F930E947A
S1130410E3160F900F900F900F9088EE93E00E94D8
S113042016110E9400010E94F2108EEA94E7892FAF
S11304308F938EEA94E78F9381EA94E7892F8F93C1
S113044081EA94E78F938AED93E7892F8F938AED5E
S113045093E78F931F9284E68F9384EF98E2892F1A
S11304608F9384EF98E28F930E94F9168DB79EB70D
S11304700A96CDBFDEBF84EF98E2892F8F9384EF75
S113048098E28F930E94E3160F900F9084EF98E206
S11304900E94990B82E090E00E9416110E940001D4
S11304A00E94F21083E994E70E9430010E94F21046
S11304B00E9400016AEF73E78CEC98E20E94C41674
S11304C0892B09F0B2CF8EEA94E7892F8F938EEAB5
S11304D094E78F9381EA94E7892F8F9381EA94E7D5
S11304E08F938AED93E7892F8F938AED93E78F9308
S11304F01F9284E68F9384EF98E2892F8F9384EF81
S113050098E28F930E94F9168DB79EB70A96CDBFD5
S1130510DEBF84EF98E2892F8F9384EF98E28F9364
S11305200E94E3160F900F9084EF98E20E94990BBB
S113053082E090E00E9416110E9400010E94F210D5
S11305400000DF91CF910895CF93DF9300D0CDB712
S1130550DEB789839A8362ED74E78BEC94E70E949B
S11305609B008A818F9389818F9384EF98E2892FEE
S11305708F9384EF98E28F938AED93E7892F8F937B
S11305808AED93E78F931F9284E68F9388E599E22F
S1130590892F8F9388E599E28F930E94F9168DB77E
S11305A09EB70A96CDBFDEBF00000F900F90DF917B
S11305B0CF910895CF93DF9300D0CDB7DEB7898371
S11305C09A8380914828882341F08FE090E00E942C
S11305D0161182E090E00E94161189819A810E948E
S11305E0A40288E599E20E94300182E090E00E9432
S11305F016110E94F2100E94000100000F900F904B
S1130600DF91CF910895CF93DF93CDB7DEB7EA970B
S1130610CDBFDEBF0E946F0081E490E08093BC29CF
S11306209093BD2980E390E08093BE299093BF29E5
S11306300E946A0183EF8093DA298DE28093DB299B
S113064080E090E0A8ECB2E48F839887A987BA870A
S113065020E030E44CE954E46F81788589859A85FB
S11306600E945716DC01CB018FA398A7A9A7BAA7AC
S113067020E030E040E85FE36FA178A589A59AA562
S11306800E94FA1488232CF481E090E08BA79CA7A5
S11306903FC020E03FEF4FE757E46FA178A589A55D
S11306A09AA50E94521618164CF520E030E040E25C
S11306B051E46F81788589859A850E945716DC01FB
S11306C0CB01BC01CD010E947115DC01CB018BA7CC
S11306D09CA70FC08DE790E08DA79EA78DA59EA532
S11306E00197F1F78DA79EA78BA59CA501978BA7D2
S11306F09CA78BA59CA5892B69F714C06FA178A52D
S113070089A59AA50E947115DC01CB018BA79CA732
S11307108BA59CA58FA798AB8FA598A90197F1F7F6
S11307208FA798AB42E050E06AED79E284E40E943E
S1130730631080E090E0A0E8BFE38B879C87AD87DF
S1130740BE8720E030E44CE954E46B857C858D85DC
S11307509E850E945716DC01CB018D8F9E8FAF8F33
S1130760B8A320E030E040E85FE36D8D7E8D8F8D8F
S113077098A10E94FA1488232CF481E090E089A3C4
S11307809AA33FC020E03FEF4FE757E46D8D7E8D85
S11307908F8D98A10E94521618164CF520E030E077
S11307A040E251E46B857C858D859E850E945716B9
S11307B0DC01CB01BC01CD010E947115DC01CB0130
S11307C089A39AA30FC08DE790E08BA39CA38BA170
S11307D09CA10197F1F78BA39CA389A19AA10197EE
S11307E089A39AA389A19AA1892B69F714C06D8D55
S11307F07E8D8F8D98A10E947115DC01CB0189A398
S11308009AA389A19AA18DA39EA38DA19EA10197CC
S1130810F1F78DA39EA343E050E064EE79E284E413
S11308200E94901080E38093DA2981E48093DB298D
S113083042E050E06AED79E284E40E94631080E0D3
S113084090E0A0E8BFE38F87988BA98BBA8B20E058
S113085030E44CE954E46F85788989899A890E9447
S11308605716DC01CB018B8B9C8BAD8BBE8B20E0B0
S113087030E040E85FE36B897C898D899E890E9422
S1130880FA1488232CF481E090E08F8B988F3FC07A
S113089020E03FEF4FE757E46B897C898D899E897F
S11308A00E94521618164CF520E030E040E251E464
S11308B06F85788989899A890E945716DC01CB0152
S11308C0BC01CD010E947115DC01CB018F8B988F87
S11308D00FC08DE790E0898F9A8F898D9A8D01974B
S11308E0F1F7898F9A8F8F89988D01978F8B988FC5
S11308F08F89988D892B69F714C06B897C898D89C0
S11309009E890E947115DC01CB018F8B988F8F8992
S1130910988D8B8F9C8F8B8D9C8D0197F1F78B8F8E
S11309209C8F43E050E064EE79E284E40E949010EE
S113093019821A8277C080E090E0AAE7B4E48B833E
S11309409C83AD83BE8320E030E44CE954E46B81A6
S11309507C818D819E810E945716DC01CB0189AB7D
S11309609AABABABBCAB20E030E040E85FE369A9F5
S11309707AA98BA99CA90E94FA1488232CF481E0FB
S113098090E08DAB9EAB3FC020E03FEF4FE757E4D4
S113099069A97AA98BA99CA90E94521618164CF52C
S11309A020E030E040E251E46B817C818D819E81C6
S11309B00E945716DC01CB01BC01CD010E947115C8
S11309C0DC01CB018DAB9EAB0FC08DE790E08FAB0C
S11309D098AF8FA998AD0197F1F78FAB98AF8DA918
S11309E09EA901978DAB9EAB8DA99EA9892B69F712
S11309F014C069A97AA98BA99CA90E947115DC016C
S1130A00CB018DAB9EAB8DA99EA989AF9AAF89AD61
S1130A109AAD0197F1F789AF9AAF89819A810196CE
S1130A2089839A8389819A810A9708F484CF809173
S1130A30E429882F90E08093BC299093BD2980916C
S1130A40E529882F90E08093BE299093BF29809157
S1130A50E729882F90E08093C0299093C129809141
S1130A60E829882F90E08093C2299093C3290E949B
S1130A704305BC018CEB99E20E94CD168CEB99E204
S1130A800E94DA0255CFCF93DF93CDB7DEB76097DC
S1130A90CDBFDEBF8CE28D8386E08E83CE010596CA
S1130AA042E050E0BC0184E40E946310CE0107964A
S1130AB046E050E0BC0184E40E9490108F81882FAE
S1130AC090E0382F22278885882F90E0820F931F8B
S1130AD089839A838A85882F90E0382F22278B85F3
S1130AE0882F90E0820F931F8B839C8389819A8146
S1130AF0CC01A0E0B0E0BC01CD010E94A015DC0156
S1130B00CB0120E030E04FE253E4BC01CD010E9470
S1130B105716DC01CB0120E03FEF4FE757E4BC015F
S1130B20CD010E94FF14DC01CB0120E030E044E35E
S1130B3052E4BC01CD010E948D14DC01CB018093F1
S1130B40DC299093DD29A093DE29B093DF298B81E2
S1130B509C81CC01A0E0B0E0BC01CD010E94A015B5
S1130B60DC01CB0120E030E048EC52E4BC01CD01D3
S1130B700E945716DC01CB0120E03FEF4FE757E41A
S1130B80BC01CD010E94FF14DC01CB018093E0295C
S1130B909093E129A093E229B093E3292091E029DD
S1130BA03091E1294091E2295091E3298091DC2997
S1130BB09091DD29A091DE29B091DF29652F6F93F3
S1130BC0642F6F93632F6F932F932B2F2F932A2FC1
S1130BD02F93292F2F938F9385E094E7892F8F9359
S1130BE085E094E78F930E94E3168DB79EB70A962B
S1130BF0CDBFDEBF8C818F938B818F938A818F933E
S1130C0089818F938EE194E7892F8F938EE194E706
S1130C108F931F928FE08F9389E498E2892F8F93AB
S1130C2089E498E28F930E94F9168DB79EB70A96CD
S1130C30CDBFDEBF89E498E26096CDBFDEBFDF9111
S1130C40CF910895CF93DF93CDB7DEB780E0DF91E6
S1130C50CF910895CF93DF9300D01F92CDB7DEB725
S1130C6089839A836B8389819A814B8168ED0E9481
S1130C70A81100002396CDBFDEBFDF91CF91089568
S1130C80CF93DF93CDB7DEB762E088E790E00E94B0
S1130C902A0663E081E690E00E942A0680E0DF9164
S1130CA0CF910895CF93DF93CDB7DEB7789480E0EA
S1130CB0DF91CF910895CF93DF9300D000D0CDB7CB
S1130CC0DEB78B836C838B81882F90E0805F9B4F92
S1130CD089839A838C81813059F489819A81FC01BA
S1130CE08081282F286089819A81FC0120830DC08E
S1130CF08C81882351F489819A81FC018081282F79
S1130D00277F89819A81FC01208300002496CDBF2E
S1130D10DEBFDF91CF910895CF93DF9300D000D051
S1130D20CDB7DEB78B836C838B81882F90E0805F97
S1130D309B4F89839A838C81882359F089819A8176
S1130D40FC018081282F206889819A81FC012083FD
S1130D500AC089819A81FC018081282F2F7789819B
S1130D609A81FC01208300002496CDBFDEBFDF9171
S1130D70CF910895CF93DF9300D000D0CDB7DEB7E5
S1130D808B836C838B81882F90E0805F9B4F89835A
S1130D909A8389819A81FC018081982F987F8C8124
S1130DA0892B282F89819A81FC01208300002496B5
S1130DB0CDBFDEBFDF91CF910895CF93DF9300D0F5
S1130DC0CDB7DEB789836A838A81882F90E081302A
S1130DD09105E1F08230910571F1892B09F03BC056
S1130DE020E030E080E090E0FC018081682F898180
S1130DF0482F50E081E090E002C0880F991F4A9587
S1130E00E2F780958623F901808325C020E030E055
S1130E1080E090E0FC018081682F8981482F50E0B8
S1130E2081E090E002C0880F991F4A95E2F7862B73
S1130E30F901808310C08981882F90E0805F9B4FE7
S1130E402981222F30E0205F3B4FF9012081286067
S1130E50FC012083000000000F900F90DF91CF91E0
S1130E600895CF93DF9300D0CDB7DEB789836A832B
S1130E708A818823A9F020E030E080E090E0FC0142
S1130E808181682F8981482F50E081E090E002C081
S1130E90880F991F4A95E2F7862BF901818315C0C3
S1130EA020E030E080E090E0FC018181682F8981BE
S1130EB0482F50E081E090E002C0880F991F4A95C6
S1130EC0E2F780958623F901818300000F900F904B
S1130ED0DF91CF910895CF93DF9300D000D0CDB7A9
S1130EE0DEB78B836C838B81882F90E0805D9B4F72
S1130EF089839A838C81813059F489819A81FC0198
S1130F008081282F286089819A81FC0120830DC06B
S1130F108C81882351F489819A81FC018081282F56
S1130F20277F89819A81FC01208300002496CDBF0C
S1130F30DEBFDF91CF910895CF93DF9300D0CDB77B
S1130F40DEB789836A838A81882F90E08130910596
S1130F50E1F08230910571F1892B09F03BC084E006
S1130F6090E024E030E0F9012081622F2981422FB2
S1130F7050E021E030E002C0220F331F4A95E2F72F
S1130F8020952623FC01208325C084E090E024E002
S1130F9030E0F9012081622F2981422F50E021E0C5
S1130FA030E002C0220F331F4A95E2F7262BFC01E2
S1130FB0208310C08981882F90E0805D9B4F298118
S1130FC0222F30E0205D3B4FF90120812860FC0195
S1130FD02083000000000F900F90DF91CF910895BF
S1130FE0CF93DF9300D0CDB7DEB789836A838A813C
S1130FF08823A9F084E090E024E030E0F901218125
S1131000622F2981422F50E021E030E002C0220FFC
S1131010331F4A95E2F7262BFC01218315C084E097
S113102090E024E030E0F9012181622F2981422FF0
S113103050E021E030E002C0220F331F4A95E2F76E
S113104020952623FC01218300000F900F90DF914F
S1131050CF910895CF93DF9300D0CDB7DEB78983C6
S11310606A838A81882F90E081309105E1F0823093
S1131070910571F1892B09F03BC08CE090E02CE0E4
S113108030E0F9012081622F2981422F50E021E0D4
S113109030E002C0220F331F4A95E2F72095262341
S11310A0FC01208325C08CE090E02CE030E0F901C5
S11310B02081622F2981422F50E021E030E002C0DC
S11310C0220F331F4A95E2F7262BFC01208310C020
S11310D08981882F90E080599B4F2981222F30E00D
S11310E020593B4FF90120812860FC012083000036
S11310F000000F900F90DF91CF910895CF93DF936D
S113110000D0CDB7DEB789836A838A818823A9F0AA
S11311108CE090E02CE030E0F9012181622F2981FC
S1131120422F50E021E030E002C0220F331F4A95E5
S1131130E2F7262BFC01218315C08CE090E02CE023
S113114030E0F9012181622F2981422F50E021E012
S113115030E002C0220F331F4A95E2F72095262380
S1131160FC01218300000F900F90DF91CF9108952F
S1131170CF93DF931F92CDB7DEB78983698180E077
S11311800E94DD0600000F90DF91CF910895CF9368
S1131190DF931F92CDB7DEB78983698180E00E9417
S11311A0310700000F90DF91CF910895CF93DF9323
S11311B01F92CDB7DEB78983698181E00E945B0607
S11311C000000F90DF91CF910895CF93DF931F928A
S11311D0CDB7DEB78983698181E00E94DD06000016
S11311E00F90DF91CF910895CF93DF931F92CDB7E6
S11311F0DEB78983698182E00E945B0600000F905C
S1131200DF91CF910895CF93DF931F92CDB7DEB7CF
S11312108983698182E00E94DD0600000F90DF91DE
S1131220CF910895CF93DF931F92CDB7DEB7898313
S1131230698182E00E94BA0600000F90DF91CF918D
S11312400895CF93DF931F92CDB7DEB78983698169
S113125082E00E948C0600000F90DF91CF910895E8
S1131260CF93DF931F92CDB7DEB78983698182E084
S11312700E94310700000F90DF91CF910895CF9322
S1131280DF931F92CDB7DEB78983698183E00E9423
S11312905B0600000F90DF91CF910895CF93DF9309
S11312A01F92CDB7DEB78983698183E00E94DD0692
S11312B000000F90DF91CF910895CF93DF931F9299
S11312C0CDB7DEB78983698183E00E94BA06000046
S11312D00F90DF91CF910895CF93DF931F92CDB7F5
S11312E0DEB78983698183E00E948C0600000F9039
S11312F0DF91CF910895CF93DF931F92CDB7DEB7DF
S11313008983698183E00E94310700000F90DF9197
S1131310CF910895CF93DF931F92CDB7DEB7898322
S1131320698187E00E945B0600000F90DF91CF91F6
S11313300895CF93DF931F92CDB7DEB78983698178
S113134087E00E94DD0600000F90DF91CF910895A1
S1131350CF93DF931F92CDB7DEB78983698180E095
S11313600E949C0700000F90DF91CF910895CF93C6
S1131370DF931F92CDB7DEB78983698180E00E9435
S1131380F00700000F90DF91CF910895CF93DF9382
S11313901F92CDB7DEB78983698181E00E946B0714
S11313A000000F90DF91CF910895CF93DF931F92A8
S11313B0CDB7DEB78983698181E00E949C07000074
S11313C00F90DF91CF910895CF93DF931F92CDB704
S11313D0DEB78983698186E00E942A0800000F90A5
S11313E0DF91CF910895CF93DF931F92CDB7DEB7EE
S11313F08983698186E00E947E0800000F90DF9156
S1131400CF910895CF93DF931F92CDB7DEB7898331
S1131410698187E00E942A0800000F90DF91CF9134
S11314200895CF93DF931F92CDB7DEB78983698187
S113143087E00E947E0800000F90DF91CF9108950D
S1131440CF93DF93CDB7DEB72697CDBFDEBF19822A
S113145012C08981882F90E0805F9B4F2981222FC1
S113146030E0205F3B4FF90120812860FC0120839C
S113147089818F5F89838981883058F31A8212C0E9
S11314808A81882F90E0805D9B4F2A81222F30E053
S1131490205D3B4FF90120812860FC0120838A8173
S11314A08F5F8A838A81883058F31B8212C08B81B4
S11314B0882F90E0805B9B4F2B81222F30E0205BB4
S11314C03B4FF90120812860FC0120838B818F5FD1
S11314D08B838B81883058F31C8212C08C81882FB7
S11314E090E080599B4F2C81222F30E020593B4FB4
S11314F0F90120812860FC0120838C818F5F8C831B
S11315008C81883058F31D8212C08D81882F90E021
S113151080579B4F2D81222F30E020573B4FF901FC
S113152020812860FC0120838D818F5F8D838D81D4
S1131530883058F31E8212C08E81882F90E0805527
S11315409B4F2E81222F30E020553B4FF901208103
S11315502860FC0120838E818F5F8E838E8188308A
S113156058F300002696CDBFDEBFDF91CF910895DA
S1131570CF93DF93CDB7DEB780E00E94E50880E02B
S11315800E94D60881E00E94B80880E00E94C70843
S11315900E9407130000DF91CF910895CF93DF934A
S11315A0CDB7DEB780E00E94D50980E00E94C6096D
S11315B081E00E94A80980E00E94B7090E945914A2
S11315C00000DF91CF910895CF93DF93CDB7DEB7BD
S11315D00E94B4110000DF91CF910895CF93DF935F
S11315E0CDB7DEB781E00E944E0980E00E947B09FE
S11315F080E00E943F0980E00E946C0980E00E9424
S11316005D0981E00E94030980E00E94300980E0C6
S11316100E94F40880E00E94210980E00E941209DF
S11316200E94D80B0000DF91CF910895CF93DF93F0
S1131630CDB7DEB70E94200A80E00E94990980E0BD
S11316400E948A0981E00E94E40980E00E94F30973
S113165081E00E94020A80E00E94110A0E94400672
S11316600E94B80A0E94CE0A0E94E40A0E9452060E
S11316700E94AC110E94EE0A0E9422060000DF9133
S1131680CF910895CF93DF9300D0CDB7DEB7898390
S11316906A838A818823A9F08CE090E02CE030E012
S11316A0F9012181622F2981422F50E021E030E0AD
S11316B002C0220F331F4A95E2F7262BFC01218337
S11316C015C08CE090E02CE030E0F9012181622F1C
S11316D02981422F50E021E030E002C0220F331F65
S11316E04A95E2F720952623FC01218300000F9000
S11316F00F90DF91CF910895CF93DF931F92CDB7D1
S1131700DEB78983698187E00E94420B00000F9055
S1131710DF91CF910895CF93DF931F92CDB7DEB7BA
S1131720898389810E947C0B00000F90DF91CF9107
S11317300895CF93DF9300D0CDB7DEB789839A8322
S11317400BC089819A819C012F5F3F4F29833A8383
S1131750FC0180810E94D31289819A81FC018081DD
S1131760882379F78DE00E94D3128AE00E94D31275
S113177000000F900F90DF91CF910895CF93DF93E6
S113178000D000D0CDB7DEB789839A836B837C8386
S11317902B813C8189819A81A901BC0182E00E944C
S11317A0191000002496CDBFDEBFDF91CF910895BC
S11317B0CF93DF93CDB7DEB780EA98E024E1FC0154
S11317C0268380EA98E021ECFC0123830000DF916A
S11317D0CF910895CF93DF9300D0CDB7DEB78A833E
S11317E081E08983809158288270882309F077C02A
S11317F08A8180935928809158288E7F8093582815
S11318008091582882608093582880915828877F37
S1131810809358288EE08093622884EF91E080932F
S11318206028909361288091582884608093582878
S11318308FEF9FE08093642890936528109270281E
S1131840109271288FEF9FE0809366289093672809
S113185010927228109273288FEF9FE0809368286B
S11318609093692810927428109275288FEF9FE046
S113187080936A2890936B28109276281092772888
S11318808CE090E180936C2890936D2810927828D6
S11318901092792880EA98E020EA38E0F90124815E
S11318A02860FC01248380EA98E020EA38E0F9010A
S11318B025812160FC01258380EA98E020EA38E054
S11318C0F9012581206CFC01258380EA98E020EA57
S11318D038E0F9012381206CFC012383198289817A
S11318E00F900F90DF91CF910895CF93DF931F92C4
S11318F0CDB7DEB781E0898380EA98E0FC01858179
S1131900882F90E084709927892B41F08091582882
S11319108E7F8093582882E0809363288091582892
S113192081708823E9F4809158288D7F809358280A
S11319308FEF8093592880EA98E020EA38E0F90193
S11319402581206CFC01258380EA98E020EA38E0B8
S1131950F90123812F73FC012383809163288983F8
S113196089810F90DF91CF910895CF93DF9300D0B9
S113197000D0CDB7DEB789839A836B837C83809153
S113198058288470882389F089819A8180935A2801
S113199090935B288B819C8180935C2890935D2835
S11319A0809158288B7F8093582800002496CDBFBF
S11319B0DEBFDF91CF910895CF93DF9300D0CDB7F1
S11319C0DEB78A8381E089838091582881708823D7
S11319D091F48091582881608093582819828A81D3
S11319E0882321F081E08093622803C082E0809301
S11319F062280E94B30F89810F900F90DF91CF91DD
S1131A000895CF93DF93CDB7DEB781E00E94DC0C5D
S1131A10DF91CF910895CF93DF93CDB7DEB780E008
S1131A200E94DC0CDF91CF910895CF93DF93CDB763
S1131A30DEB780EA98E020EA38E0F90124812860E2
S1131A40FC01248380EA98E020EA38E0F90125814A
S1131A502160FC012583809158288E7F809358282B
S1131A60109263288EE0DF91CF910895CF93DF9396
S1131A70CDB7DEB7809158288E7F80935828109276
S1131A80632880E0DF91CF910895CF93DF93CDB7A2
S1131A90DEB70E949B0DDF91CF910895CF93DF9322
S1131AA0CDB7DEB70E94B30DDF91CF910895CF93E8
S1131AB0DF93CDB7DEB70E949B0DDF91CF910895E0
S1131AC0CF93DF93CDB7DEB780EA98E020EA38E021
S1131AD0F90124812360FC0124830E94360DDF91E7
S1131AE0CF910895CF93DF93CDB7DEB78091582877
S1131AF0877F8093582882E0809363282091682808
S1131B00309169288091742890917528F90109957C
S1131B10882F90E08230910519F0039721F006C0D8
S1131B200E94450D05C00E944E0D02C00E94600D2A
S1131B30DF91CF910895CF93DF93CDB7DEB7809136
S1131B40582888608093582880EA98E02091592882
S1131B50222F30E0220F331F2160FC01278384E011
S1131B60DF91CF910895CF93DF93CDB7DEB7809106
S1131B70582888608093582880EA98E02091592852
S1131B80220FFC01278383E0DF91CF910895CF9347
S1131B90DF93CDB7DEB780EA98E020EA38E0F901B8
S1131BA024812B7FFC01248384E0DF91CF9108956D
S1131BB0CF93DF93CDB7DEB780EA98E020EA38E030
S1131BC0F90124812B7FFC01248383E0DF91CF91F1
S1131BD00895CF93DF93CDB7DEB780EA98E020EA8B
S1131BE038E0F90124812460FC01248380EA98E030
S1131BF020EA38E0F90124812360FC0124830E9457
S1131C00360DDF91CF910895CF93DF93CDB7DEB733
S1131C1080EA98E020EA38E0F90124812460FC019C
S1131C20248388E0DF91CF910895CF93DF93CDB7DC
S1131C30DEB780EA98E0FC018581882F90E080710E
S1131C409927892BD9F020916A2830916B288091AB
S1131C50762890917728F9010995882F90E08230B1
S1131C60910519F0039721F006C00E94450D2EC07E
S1131C700E944E0D2BC00E94600D28C080915828F0
S1131C80877F8093582820EA38E080915A289091E1
S1131C905B28AC014F5F5F4F40935A2850935B28F9
S1131CA0FC018081F901808780915C2890915D28F6
S1131CB0019780935C2890935D2880915C28909193
S1131CC05D28892B11F083E001C085E0DF91CF917D
S1131CD00895CF93DF93CDB7DEB780915828877FDF
S1131CE08093582880915C2890915D28019751F445
S1131CF080EA98E020EA38E0F90124812460FC01BC
S1131D00248309C080EA98E020EA38E0F9012481BC
S1131D102B7FFC01248380915C2890915D2801979E
S1131D2080935C2890935D2880915C2890915D2835
S1131D30892BF1F080915A2890915B2820EA38E0B1
S1131D40F9012085FC01208380915A2890915B2819
S1131D50019680935A2890935B2880EA98E020EAC1
S1131D6038E0F90124812260FC01248384E02CC042
S1131D7080915A2890915B2820EA38E0F901208567
S1131D80FC01208380915A2890915B2801968093CE
S1131D905A2890935B28809158288460809358280F
S1131DA02091642830916528809170289091712841
S1131DB0F9010995882F90E00297029718F40E9480
S1131DC0040E02C00E94E90DDF91CF910895CF93D4
S1131DD0DF93CDB7DEB780EA98E0FC018581882FD8
S1131DE090E080719927892BD9F020916A2830914D
S1131DF06B288091762890917728F9010995882F8E
S1131E0090E08230910519F0039721F006C00E94FA
S1131E10450D2AC00E944E0D27C00E94600D24C0AB
S1131E2080915828846080935828209164283091A8
S1131E3065288091702890917128F9010995882F5F
S1131E4090E08330910541F08430910541F0029790
S1131E5049F40E94450D08C00E944E0D05C00E9421
S1131E60150E02C00E94600DDF91CF910895CF93AB
S1131E70DF93CDB7DEB780EA98E020EA38E0F901D5
S1131E8025812860FC01258382E0809363282091CA
S1131E906628309167288091722890917328F901FF
S1131EA00995882F90E08230910519F0039721F06D
S1131EB006C00E94450D05C00E944E0D02C00E943E
S1131EC0150DDF91CF910895CF93DF93CDB7DEB792
S1131ED080EA98E020EA38E0F90124812860FC01D6
S1131EE0248380EA98E020EA38E0F9012581216022
S1131EF0FC012583809158288E7F8093582882E0A6
S1131F00809363288EE0DF91CF9108951F920F9202
S1131F1000903F000F9211242F933F934F935F93B0
S1131F206F937F938F939F93AF93BF93EF93FF939D
S1131F30CF93DF93CDB7DEB70E94B30F0000DF91DC
S1131F40CF91FF91EF91BF91AF919F918F917F912D
S1131F506F915F914F913F912F910F9000923F00AD
S1131F600F901F901895CF93DF93CDB7DEB780EA1B
S1131F7098E020EA38E0F9012581206CFC012583F2
S1131F80809158288870882369F080EA98E0FC01E1
S1131F908581882F90E080719927892B19F08FE033
S1131FA08093622880EA98E0FC018581882F90E084
S1131FB088709927892B19F080E18093622880EA40
S1131FC098E0FC018581882F90E084709927892B03
S1131FD019F081E18093622880916228882F90E033
S1131FE0880F991F8050984DFC0180819181FC01DC
S1131FF00995809362280000DF91CF910895CF93D3
S1132000DF9300D0CDB7DEB789839A8381E00F9048
S11320100F90DF91CF910895CF93DF9300D0CDB788
S1132020DEB789839A8385E00F900F90DF91CF917B
S11320300895CF93DF93CDB7DEB72597CDBFDEBF2D
S113204089836A837B834C835D838A819B81892B0B
S1132050D9F08981882F90E00696880F991F885AB5
S1132060974D2A813B81FC01208331838981882F0C
S113207090E00C96880F991F885A974D2C813D81CA
S1132080FC012083318318C08981882F90E0069653
S1132090880F991F885A974D2FEF3FE0FC0120834A
S11320A031838981882F90E00C96880F991F885A74
S11320B0974DFC011082118200002596CDBFDEBF32
S11320C0DF91CF910895CF93DF93CDB7DEB72597F6
S11320D0CDBFDEBF89836A837B834C835D8300002D
S11320E089810E94EA0B8823D9F32C813D818A815E
S11320F09B81B9010E94B50C60E070E087EB90E130
S11321000E94BE0B0E940B0D00000E94750C8130D2
S1132110E1F300002596CDBFDEBFDF91CF91089596
S1132120CF93DF93CDB7DEB72597CDBFDEBF8983CD
S11321306A837B834C835D83000089810E94EA0B60
S11321408823D9F32C813D818A819B81B9010E9426
S1132150B50C0E94010D00000E94750C8130E1F362
S113216000002596CDBFDEBFDF91CF910895CF93B8
S1132170DF9300D0CDB7DEB789839A8383E00F90D5
S11321800F90DF91CF910895CF93DF931F92CDB736
S1132190DEB70E943B1389838981882389F080916B
S11321A07C28833268F480917C2891E0980F909386
S11321B07C28882F90E08358974D2981FC01208347
S11321C000000F90DF91CF910895CF93DF93CDB7A7
S11321D0DEB761E084EC90E10E943E120000DF91E2
S11321E0CF910895CF93DF931F92CDB7DEB71092AE
S11321F07C2819820AC08981882F90E08358974DE2
S1132200FC01108289818F5F89838981833298F3ED
S113221000000F90DF91CF910895CF93DF93CDB756
S1132220DEB78DE798E2DF91CF910895CF93DF93E6
S1132230CDB7DEB76297CDBFDEBF898B9A8B19828B
S11322401A8277C080E090E0A0E7B1E48B839C839E
S1132250AD83BE8320E030E44CE954E46B817C819F
S11322608D819E810E945716DC01CB018F83988754
S1132270A987BA8720E030E040E85FE36F81788582
S113228089859A850E94FA1488232CF481E090E0D1
S11322908B879C873FC020E03FEF4FE757E46F8177
S11322A0788589859A850E94521618164CF520E087
S11322B030E040E251E46B817C818D819E810E94FB
S11322C05716DC01CB01BC01CD010E947115DC0164
S11322D0CB018B879C870FC08DE790E08D879E870D
S11322E08D859E850197F1F78D879E878B859C85CB
S11322F001978B879C878B859C85892B69F714C0F4
S11323006F81788589859A850E947115DC01CB01DE
S11323108B879C878B859C858F87988B8F859889E5
S11323200197F1F78F87988B89819A810196898328
S11323309A8329813A8189899A892817390708F467
S113234081CF00006296CDBFDEBFDF91CF910895AB
S1132350FC0164BF40830895CF93DF93CDB7DEB70C
S113236080E0DF91CF910895CF93DF93CDB7DEB7AF
S113237080E89AE020E03CE3FC012487358780E88C
S11323809AE021E0FC01258380E89AE023E4FC0143
S1132390208380E0DF91CF910895CF93DF9300D025
S11323A01F92CDB7DEB789836A837B8389810E94BC
S11323B0D31280E090E02396CDBFDEBFDF91CF91B2
S11323C00895CF93DF9300D0CDB7DEB780E098E0D7
S11323D0FC01808189838091A8288F5F87708A831C
S11323E08091A9289A81981781F08A818093A828DE
S11323F08A81882F90E08056974D2981FC012083A3
S11324008091AA288F5F8093AA2800000F900F90D4
S1132410DF91CF910895CF93DF931F92CDB7DEB7AD
S11324208091B5288823C1F08091B4288F5F87708C
S1132430898389818093B42880E098E02981222FC0
S113244030E02555374DF9012081FC01228380912C
S1132450B52881508093B5288091B528882349F404
S113246080E098E020E038E0F90125812F7DFC012F
S1132470258300000F90DF91CF910895CF93DF93D0
S113248000D01F92CDB7DEB789839A836B838B818B
S1132490882F90E08130910519F0029741F00EC029
S11324A089819A81809332289093332807C0898147
S11324B09A81809334289093352800000000239655
S11324C0CDBFDEBFDF91CF9108951F920F92009090
S11324D03F000F9211242F933F934F935F936F9379
S11324E07F938F939F93AF93BF93EF93FF93CF9378
S11324F0DF93CDB7DEB78091322890913328892BB2
S113250031F08091322890913328FC010995000024
S1132510DF91CF91FF91EF91BF91AF919F918F91F7
S11325207F916F915F914F913F912F910F90009206
S11325303F000F901F9018951F920F9200903F003C
S11325400F9211242F933F934F935F936F937F9335
S11325508F939F93AF93BF93EF93FF93CF93DF93A7
S1132560CDB7DEB78091342890913528892B31F08E
S11325708091342890913528FC0109950000DF9161
S1132580CF91FF91EF91BF91AF919F918F917F91E7
S11325906F915F914F913F912F910F9000923F0067
S11325A00F901F901895CF93DF9300D0CDB7DEB76F
S11325B08A838091B3288F5F87708983000080911C
S11325C0B5288830E1F38981882F90E08555974DAF
S11325D02A81FC01208389818093B3280FB6F89463
S11325E00F928091B5288F5F8093B5280F900FBE0E
S11325F080E098E020E038E0F90125812062FC01C8
S1132600258300000F900F90DF91CF910895CF9311
S1132610DF931F92CDB7DEB780E098E02BE531E081
S1132620FC012087318780E098E020E8FC012583C5
S113263080E098E020ECFC01268319828981809354
S1132640A92889818093A82889818093AA288981CF
S11326508093B42889818093B32889818093B52895
S113266084E298E28093F0299093F12980E00F901E
S1132670DF91CF910895CF93DF93CDB7DEB780E09C
S113268098E0FC018081DF91CF910895CF93DF938F
S113269000D01F92CDB7DEB789836A837B8389819B
S11326A00E94251480E090E02396CDBFDEBFDF9129
S11326B0CF910895CF93DF9300D0CDB7DEB780E6F6
S11326C098E0FC01808189838091BE288F5F8770A8
S11326D08A838091BF289A81981781F08A81809398
S11326E0BE288A81882F90E08A54974D2981FC0165
S11326F020838091C0288F5F8093C02800000F90B2
S11327000F90DF91CF910895CF93DF931F92CDB7B0
S1132710DEB78091CB288823C1F08091CA288F5FCF
S11327208770898389818093CA2880E698E029810B
S1132730222F30E02F53374DF9012081FC012283F1
S11327408091CB2881508093CB288091CB288823FB
S113275049F480E698E020E638E0F90125812F7DF0
S1132760FC01258300000F90DF91CF9108951F9203
S11327700F9200903F000F9211242F933F934F9399
S11327805F936F937F938F939F93AF93BF93EF93D5
S1132790FF93CF93DF93CDB7DEB780914428909118
S11327A04528892B31F08091442890914528FC01DB
S11327B009950000DF91CF91FF91EF91BF91AF9107
S11327C09F918F917F916F915F914F913F912F9145
S11327D00F9000923F000F901F9018951F920F9238
S11327E000903F000F9211242F933F934F935F93D8
S11327F06F937F938F939F93AF93BF93EF93FF93C5
S1132800CF93DF93CDB7DEB78091462890914728C8
S1132810892B31F08091462890914728FC01099535
S11328200000DF91CF91FF91EF91BF91AF919F9104
S11328308F917F916F915F914F913F912F910F9065
S113284000923F000F901F901895CF93DF9300D014
S1132850CDB7DEB78A838091C9288F5F877089835B
S113286000008091CB288830E1F38981882F90E0A3
S11328708F53974D2A81FC01208389818093C92835
S11328800FB6F8940F928091CB288F5F8093CB285A
S11328900F900FBE80E698E020E638E0F90125812C
S11328A02062FC01258300000F900F90DF91CF91EF
S11328B00895CF93DF931F92CDB7DEB780E698E0FB
S11328C023E238E0FC012087318780E698E020E8A5
S11328D0FC01258380E698E020ECFC012683198224
S11328E089818093BF2889818093BE2889818093C0
S11328F0C02889818093CA2889818093C9288981C5
S11329008093CB2886E398E28093F0299093F12971
S113291080E00F90DF91CF9108955058BB27AA27EC
S11329200E94A5140C9418160E940A1638F00E94EE
S1132930111620F039F49F3F19F426F40C9407166D
S11329400EF4E095E7FB0C940116E92F0E9429167A
S113295058F3BA17620773078407950720F079F4D0
S1132960A6F50C944B160EF4E0950B2EBA2FA02D61
S11329700B01B90190010C01CA01A0011124FF2728
S1132980591B99F0593F50F4503E68F11A16F04023
S1132990A22F232F342F4427585FF3CF4695379522
S11329A02795A795F0405395C9F77EF41F16BA0BE7
S11329B0620B730B840BBAF09150A1F0FF0FBB1F95
S11329C0661F771F881FC2F70EC0BA0F621F731FDE
S11329D0841F48F4879577956795B795F7959E3F3B
S11329E008F0B0CF9395880F08F09927EE0F9795CC
S11329F0879508950E94DD1508F481E008950E94EA
S1132A0013150C9418160E94111658F00E940A16F9
S1132A1040F029F45F3F29F00C94011651110C94F5
S1132A204C160C9407160E94291668F39923B1F3E7
S1132A30552391F3951B550BBB27AA2762177307E0
S1132A40840738F09F5F5F4F220F331F441FAA1F74
S1132A50A9F335D00E2E3AF0E0E832D09150504030
S1132A60E695001CCAF72BD0FE2F29D0660F771FDE
S1132A70881FBB1F261737074807AB07B0E809F0C4
S1132A80BB0B802DBF01FF2793585F4F3AF09E3F49
S1132A90510578F00C9401160C944C165F3FE4F346
S1132AA0983ED4F3869577956795B795F7959F5F8C
S1132AB0C9F7880F911D9695879597F90895E1E0D8
S1132AC0660F771F881FBB1F621773078407BA0737
S1132AD020F0621B730B840BBA0BEE1F88F7E09592
S1132AE008950E94311688F09F5798F0B92F9927BE
S1132AF0B751B0F0E1F0660F771F881F991F1AF0E5
S1132B00BA95C9F714C0B13091F00E944B16B1E0E8
S1132B1008950C944B16672F782F8827B85F39F0E7
S1132B20B93FCCF3869577956795B395D9F73EF47D
S1132B3090958095709561957F4F8F4F9F4F089525
S1132B40E89409C097FB3EF4909580957095619543
S1132B507F4F8F4F9F4F9923A9F0F92F96E9BB27F9
S1132B609395F695879577956795B795F111F8CF75
S1132B70FAF4BB0F11F460FF1BC06F5F7F4F8F4FE0
S1132B809F4F16C0882311F096E911C0772321F0D6
S1132B909EE8872F762F05C0662371F096E8862F6E
S1132BA070E060E02AF09A95660F771F881FDAF7C5
S1132BB0880F9695879597F90895990F0008550FF2
S1132BC0AA0BE0E8FEEF16161706E807F907C0F0AF
S1132BD012161306E407F50798F0621B730B840BB7
S1132BE0950B39F40A2661F0232B242B252B21F491
S1132BF008950A2609F4A140A6958FEF811D811D31
S1132C00089597F99F6780E870E060E008959FEF6A
S1132C1080EC089500240A9416161706180609066F
S1132C20089500240A94121613061406050608953E
S1132C30092E0394000C11F4882352F0BB0F40F4C6
S1132C40BF2B11F460FF04C06F5F7F4F8F4F9F4F06
S1132C50089557FD9058440F551F59F05F3F71F088
S1132C604795880F97FB991F61F09F3F79F08795EF
S1132C700895121613061406551FF2CF4695F1DF78
S1132C8008C0161617061806991FF1CF8695710508
S1132C90610508940895E894BB2766277727CB013C
S1132CA097F908950E94DD1508F48FEF08950E94A6
S1132CB06A160C9418160E940A1638F00E9411160F
S1132CC020F0952311F00C9401160C94071611248E
S1132CD00C944C160E94291670F3959FC1F3950F1E
S1132CE050E0551F629FF001729FBB27F00DB11D8C
S1132CF0639FAA27F00DB11DAA1F649F6627B00D1C
S1132D00A11D661F829F2227B00DA11D621F739F04
S1132D10B00DA11D621F839FA00D611D221F749F12
S1132D203327A00D611D231F849F600D211D822F59
S1132D30762F6A2F11249F5750409AF0F1F0882380
S1132D404AF0EE0FFF1FBB1F661F771F881F9150AD
S1132D505040A9F79E3F510580F00C9401160C9445
S1132D604C165F3FE4F3983ED4F3869577956795C8
S1132D70B795F795E7959F5FC1F7FE2B880F911DD7
S1132D809695879597F90895FB01DC018D91019043
S1132D9080190110D9F3990B0895FB01DC0101900E
S1132DA00D920020E1F70895FB01DC0141505040F1
S1132DB048F001900D920020C9F701C01D924150C6
S1132DC05040E0F70895A0E0B0E0E9EEF6E10C949D
S1132DD0CA19AE014B5F5F4FFA0161917191AF0166
S1132DE08091F0299091F1290E942917E2E00C9436
S1132DF0E319AEE0B0E0EFEFF6E10C94C8190D89E9
S1132E001E898F89988D26E02C8309831A8397FF66
S1132E1002C080E090E801978D839E83AE01455EF9
S1132E205F4F698D7A8DCE0101960E9429174D81DD
S1132E305E8157FD0AC02F813885421753070CF471
S1132E409A01F801E20FF31F10822E96E4E00C942D
S1132E50E119ABE0B0E0EFE2F7E10C94BA196C01D0
S1132E607B018A01FC0116821782838181FFCCC118
S1132E70CE0101963C01F6019381F70193FD859102
S1132E8093FF81917F01882309F4BAC1853239F413
S1132E9093FD859193FF81917F01853229F4B601D9
S1132EA090E00E942019E7CF912C212C312CFFE1D6
S1132EB0F315D8F08B3279F038F4803279F083321C
S1132EC0A1F4232D20611DC08D3261F0803369F49B
S1132ED0232D216016C0832D8260382EE32DE460FB
S1132EE03E2E2AC0F32DF8601DC037FC2DC020ED06
S1132EF0280F2A3040F08E32B9F436FC81C1232DDC
S1132F002064322E19C036FE06C08AE0989E200D39
S1132F101124922E11C0EAE02E9E200D1124222E9F
S1132F20F32DF0623F2E08C08C3621F4832D806887
S1132F30382E02C0883641F4F70193FD859193FF42
S1132F4081917F018111B3CF982F9F7D9554933048
S1132F5028F40C5F1F4F9FE399830DC0833631F033
S1132F60833771F0833509F059C021C0F80180819D
S1132F7089830E5F1F4F88248394912C530113C0BF
S1132F802801F2E04F0E511CF801A080B18036FEFA
S1132F9003C0692D70E002C06FEF7FEFC5010E948E
S1132FA015194C018201F32DFF773F2E16C028011D
S1132FB022E0420E511CF801A080B18036FE03C00D
S1132FC0692D70E002C06FEF7FEFC5010E940A19FE
S1132FD04C01F32DF0683F2E820133FC1BC0822D7F
S1132FE090E088169906B0F4B60180E290E00E9461
S1132FF020192A94F4CFF50137FC859137FE81918D
S11330005F01B60190E00E94201921102A9421E06A
S1133010821A91088114910471F7E8C0843611F082
S1133020893641F5F80137FE07C0608171818281DC
S113303093810C5F1F4F08C060817181072E000CC3
S1133040880B990B0E5F1F4FF32DFF763F2E97FFD2
S113305009C090958095709561957F4F8F4F9F4FD4
S1133060F0683F2E2AE030E0A3010E945C19882E0C
S1133070861845C0853731F4232D2F7EB22E2AE0E1
S113308030E025C0932D997FB92E8F36C1F018F406
S1133090883579F0B5C0803719F0883721F0B0C091
S11330A0E92FE061BE2EB4FE0DC0FB2DF460BF2EEF
S11330B009C034FE0AC0292F2660B22E06C028E0BB
S11330C030E005C020E130E002C020E132E0F80148
S11330D0B7FE07C060817181828193810C5F1F4FAD
S11330E006C06081718180E090E00E5F1F4FA301F4
S11330F00E945C19882E8618FB2DFF773F2E36FE22
S11331000DC0232D2E7FA22E891458F434FE0BC03B
S113311032FC09C0832D8E7EA82E05C0B82CA32CAA
S113312003C0B82C01C0B92CA4FE0FC0FE01E80DE9
S1133130F11D8081803321F49A2D997EA92E09C036
S1133140A2FE06C0B394B39404C08A2D867809F015
S1133150B394A3FC11C0A0FE06C0B21488F4280CDA
S1133160922C9B180EC0B21460F4B60180E290E079
S11331700E942019B394F7CFB21418F42B1802C08C
S1133180982C212CA4FE10C0B60180E390E00E948C
S11331902019A2FE17C0A1FC03C088E790E002C07A
S11331A088E590E0B6010CC08A2D867859F0A1FE1E
S11331B002C08BE201C080E2A7FC8DE2B60190E080
S11331C00E942019891438F4B60180E390E00E942B
S11331D020199A94F7CF8A94F301E80DF11D8081A8
S11331E0B60190E00E9420198110F5CF222009F445
S11331F042CEB60180E290E00E9420192A94F6CFD4
S1133200F6018681978102C08FEF9FEF2B96E2E152
S11332100C94D319FC010590615070400110D8F74B
S1133220809590958E0F9F1F0895FC01615070400A
S113323001900110D8F7809590958E0F9F1F0895E7
S11332400F931F93CF93DF93FB01238121FD03C0D1
S11332508FEF9FEF2CC022FF16C046815781248137
S113326035814217530744F4A081B1819D012F5F3A
S11332703F4F208331838C93268137812F5F3F4FCB
S11332802683378314C08B01EC01FB010084F18594
S1133290E02D0995892BE1F6D80116968D919C9124
S11332A01797019616968D939C931797CE01DF91ED
S11332B0CF911F910F910895FA01AA27283051F157
S11332C0203181F1E8946F936E7F6E5F7F4F8F4F53
S11332D09F4FAF4FB1E03ED0B4E03CD0670F781FB2
S11332E0891F9A1FA11D680F791F8A1F911DA11D97
S11332F06A0F711D811D911DA11D20D009F46894D0
S11333003F912AE0269F11243019305D3193DEF677
S1133310CF010895462F4770405D4193B3E00FD02D
S1133320C9F7F6CF462F4F70405D4A3318F0495D18
S113333031FD4052419302D0A9F7EACFB4E0A695FB
S11333409795879577956795BA95C9F7009761051D
S1133350710508959B01AC010A2E06945795479573
S113336037952795BA95C9F7620F731F841F951F68
S1133370A01D08952F923F924F925F926F927F9279
S11333808F929F92AF92BF92CF92DF92EF92FF9271
S11333900F931F93CF93DF93CDB7DEB7CA1BDB0B1D
S11333A0CDBFDEBF09942A88398848885F846E843B
S11333B07D848C849B84AA84B984C884DF80EE8055
S11333C0FD800C811B81AA81B981CE0FD11DCDBF97
S10D33D0DEBFED010895F894FFCF6D
S11333DA2573202573002573006E6F5F6672656519
S11333EA5F63680D0A006F6B0D0A0025730D0A00EE
S11333FA61636365707465640D0A00543A20252E6E
S113340A326620646567432C2052483A20252E32BE
S113341A660D0A002578257800303030344133307F
S113342A423030323434364538003730423344354A
S113343A37454430303146424145003044453938F5
S113344A35363741463837443145393737313531DE
S113345A4635454544343932383531006D61632087
S113346A73657420646576657569006D616320739C
S113347A657420617070657569006D616320736598
S113348A74206170706B6579006D6163206A6F697D
S113349A6E206F746161006D6163206765740062F8
S11334AA616E6400737461747573006D6163207373
S11334BA617665006D6163207365742064722035DA
S11334CA006D616320747800756E636E6620323213
S10434DA00ED
S11334DB360D9B0DB30D150E690EE70E450D4E0DF6
S11334EB570D600DC70DD80DE90D040E150D720D9A
S11334FB370F640F0000000200000000CD11000024
S113350B0000E1110B120000000200000000461342
S10B351B000000005A138413A0
S9030000FC
