S01700004C6F52615F41544D656761343830392E737265635C
S11300000C94D1000C94EE000C94EE000C94EE00D1
S11300100C94EE000C94EE000C94EE000C94EE00A4
S11300200C94EE000C94EE000C94EE000C94EE0094
S11300300C94F3000C94EE000C94EE000C940C075A
S11300400C94EE000C9432080C945B080C94EE00B3
S11300500C94EE000C94EE000C94EE000C94EE0064
S11300600C94EE000C94EE000C94EE000C94EE0054
S11300700C94EE000C94EE000C94EE000C94EE0044
S11300800C94EE000C94EE000C94EE000C94EE0034
S11300900C94EE000C94C9080C94F2080C94EE0035
S11300A06E616E00696E660000407A10F35A00A01B
S11300B0724E18090010A5D4E80000E8764817002D
S11300C000E40B54020000CA9A3B000000E1F5056D
S11300D0000080969800000040420F000000A086B7
S11300E001000000102700000000E80300000000E9
S11300F06400000000000A0000000000010000008D
S113010000002C76D888DC674F0823DFC1DFAE59A6
S1130110E1B1B796E5E3E453C63AE651997696E839
S1130120E6C28426EB898C9B62ED407C6FFCEFBCBD
S11301309C9F40F2BAA56FA5F490055A2AF75C93E8
S11301406B6CF9676DC11BFCE0E40D47FEF520E61E
S1130150B500D0ED902E0300943577050080841E01
S1130160080000204E0A000000C80C333333330F5C
S1130170986E12831141EF8D2114893BE65516CFF9
S1130180FEE6DB18D1844B381BF77C1D901DA4BB05
S1130190E424203284725E228100C9F124ECA1E5BA
S11301A03D2711241FBECFEFCDBFDFE3DEBF18E232
S11301B0A0E0B8E2E0EBF2E202C005900D92A834B0
S11301C0B107D9F729E2A8E4B8E201C01D92A43F1F
S11301D0B207E1F70E9469030C94D2100C9400005A
S11301E00E944F0408951F920F920FB60F9211248C
S11301F08F9381E08093860A8F910F900FBE0F90AA
S11302001F901895E0919F28F0E0E558F74D808104
S11302108A30C1F70E94940743E250E0BC018CECA1
S113022098E20E94D80F8CEC98E29F938F938DEB09
S113023091E69F938F930E942E100F900F900F9032
S11302400F9008950F931F93CF93DF93082F192FC7
S1130250CDEBD1E60E948907802F912F0E94720472
S11302601F930F93DF93CF930E942E100E940201DD
S113027068EA71E68CEC98E20E94C80F0F900F9028
S11302800F900F90892B21F488EE93E00E9497073A
S113029065EB71E68CEC98E20E94C80F892BD1F6CD
S11302A0DF91CF911F910F9108957F936F939F9347
S11302B08F938AEB91E69F938F931F9284E68F939B
S11302C084EF98E29F938F930E9444108DB79EB75A
S11302D00A968DBF9EBF08950E94550184EF98E24F
S11302E00E94720484EF98E29F938F938DEB91E6C2
S11302F09F938F930E942E100E9402010E948907EF
S11303000F900F900F900F900895BF92CF92DF92AD
S1130310EF92FF920F931F93CF93DF930E94830773
S113032082E090E00E94970780E00E946C0482E0E3
S113033090E00E94970781E00E946C048FE090E0B7
S11303400E9497070E9402010E9489078DEF91E69F
S11303509F938F9382E092E69F938F938AEB91E62B
S11303609F938F931F9284E68F93C4EFD8E2DF9319
S1130370CF930E944410DF93CF930E942E10CE019E
S11303800E94720482E090E00E9497070E9402019A
S11303900E94890769E872E687E392E60E946C018D
S11303A068E672E687E292E60E946C0167E472E610
S11303B087E192E60E946C0180EE91E60E9472044D
S11303C080EE91E69F938F9380EC91E69F938F93B9
S11303D00E942E1082E090E00E9497070E94020182
S11303E00E9489078DEE91E60E9472048DEE91E6DB
S11303F09F938F938DEB91E69F938F930E942E1082
S113040088EE93E00E9497070E9402010E948907E8
S11304102DB73EB72C5E3F4F2DBF3EBF0F2EF6EFDC
S1130420CF2EF1E6DF2EF02D0F2EF2E0EF2EF2E6C6
S1130430FF2EF02D0AEB11E60F2EF4E6BF2EF02D61
S1130440DF92CF92FF92EF921F930F931F92BF926E
S1130450DF93CF930E944410DF93CF930E942E101A
S1130460CE010E94720482E090E00E9497070E94ED
S113047002010E9489078AE092E60E9422010E94FA
S113048089070E94020165EC71E68CEC98E20E94F7
S1130490C80F2DB73EB7245F3F4F2DBF3EBF892BFA
S11304A079F686EF91E69F938F9382E092E69F938D
S11304B08F938AEB91E69F938F931F9284E68F9399
S11304C0C4EFD8E2DF93CF930E944410DF93CF931D
S11304D00E942E10CE010E94720482E090E00E94DD
S11304E097070E9402010E9489078DB79EB70C9658
S11304F08DBF9EBFDF91CF911F910F91FF90EF9021
S1130500DF90CF90BF900895CF93DF93C82FD92F5A
S113051080914828882341F08FE090E00E9497075B
S113052082E090E00E94970760ED71E689ED91E624
S11305300E945501DF93CF9384EF98E29F938F93AA
S11305408AEB91E69F938F931F9284E68F9388E5BD
S113055099E29F938F930E94441088E599E20E9448
S1130560220182E090E00E9497070E9489070E947E
S113057002018DB79EB70A968DBF9EBFDF91CF91C2
S11305800895AF92BF92CF92DF92EF92FF920F93B2
S11305901F93CF93DF93CDB7DEB72C97CDBFDEBFCC
S11305A08CE2898386E08A8342E050E0BE016F5F7B
S11305B07F4F84E40E94300746E050E0BE016D5F47
S11305C07F4F84E40E9453070B8110E0102F002713
S11305D08C81080F111DEE80F12CFE2CEE248F81EE
S11305E0E80EF11CB80180E090E00E943C0A20E093
S11305F030E04FE253E40E94CA0A20E03FEF4FE7A5
S113060057E40E94CA0920E030E044E352E40E9427
S11306105D09D62EC72EB82EA92E862F9C2DAB2D64
S1130620BA2D8093DC299093DD29A093DE29B09321
S1130630DF29B70180E090E00E943C0A20E030E02E
S113064048EC52E40E94CA0A20E03FEF4FE757E427
S11306500E94CA09262F372F462F572F682F792F2C
S11306604093E0295093E1296093E2297093E329B0
S11306709F938F933F932F93AF92BF92CF92DF922A
S113068082E992E69F938F930E942E10FF92EF923D
S11306901F930F938BEA92E69F938F931F928FE0A1
S11306A08F9389E498E29F938F930E944410CDBF67
S11306B0DEBF89E498E22C96CDBFDEBFDF91CF91F7
S11306C01F910F91FF90EF90DF90CF90BF90AF906C
S11306D008950E94F0000E948501CAEDD9E283EFDB
S11306E088838DE289832FE936E841E02150304048
S11306F04040E1F700C0000042E050E0BE0184E465
S11307000E94300781EE94E00197F1F700C00000E9
S113071043E050E064EE79E284E40E94530780E30E
S1130720888381E4898342E050E0BE0184E40E942E
S11307303007E1EEF4E03197F1F700C0000043E048
S113074050E064EE79E284E40E945307CCEBD9E2F2
S113075004EE19E28AE090E0FFE322E43FE0F15086
S113076020403040E1F700C000000197A9F7F801EC
S1130770808190E088839983818190E08A839B8340
S1130780838190E08C839D83848190E08E839F831A
S11307900E94C102BC01CE010E94D10FCE010E9471
S11307A08402D8CF80E0089542E068ED88E790E0C5
S11307B00E94A70743E068ED81E690E00E94A70746
S11307C080E00895789480E00895E0E1F4E0808189
S11307D088608193E83184E0F807C9F7E0E3F4E046
S11307E0808188608193E83384E0F807C9F7E0E505
S11307F0F4E0808188608193E83584E0F807C9F7E4
S1130800E0E7F4E0808188608193E83784E0F807CA
S1130810C9F7E0E9F4E0808188608193E83984E0F5
S1130820F807C9F7E0EBF4E0808188608193E83B46
S113083084E0F807C9F708950198E1E1F4E08081C4
S1130840877F8083009A08980E94A80808952198B9
S1130850E1E3F4E08081877F8083209A28980E94D6
S11308603F090895039A0B98E3E1F4E08081877FC0
S1130870808380818F7780838081887F8083029AC0
S11308800A98E2E1F4E08081877F808380818F771A
S113089080838081887F80830E94730608950E94EC
S11308A0E5030798E7E1F4E08081877F8083669A17
S11308B06E98679A6F980E94D4030E941C040E9449
S11308C027040E94AD070E94E2030E94AB070E9426
S11308D032040E94D2030895882311F06F9A089578
S11308E06F980895CF93DF93EC018881882331F0CA
S11308F021960E94840889918111FBCF8DE00E948A
S113090084088AE00E948408DF91CF910895E0EA88
S1130910F8E0848188608483858181608583E8E54B
S1130920F8E280818E7F808313868EE00895E8E567
S1130930F8E280818E7F8083138680E00895E8E565
S1130940F8E28081886080838181880F8160809350
S1130950A70884E008950E949F0408950E949F04BC
S11309600895E8E5F8E28081886080838181880FBA
S11309708093A70883E008950E94B1040895E0EAF3
S1130980F8E084818B7F848384E00895E0EAF8E0D2
S113099084818B7F848383E00895E0EAF8E0848196
S11309A08460848388E00895E0EAF8E084818860C4
S11309B08483858181608583E8E5F8E280818E7F88
S11309C0808382E083878EE00895CF93DF93E0EA0B
S11309D0F8E08581806C85838091582883FF07C067
S11309E08091A50884FF03C08FE0809362288091E2
S11309F0A50883FF03C080E1809362288091A50845
S1130A0082FF03C081E180936228C8E5D8E2EA85C9
S1130A10F0E0EE0FFF1FE050F84D0190F081E02D63
S1130A2009958A87DF91CF91089581E0089585E043
S1130A3008956115710581F090E0FC01EE0FFF1F30
S1130A40EC59F74D60837183880F991FFC01E059BD
S1130A50F74D40835183089590E0FC01EE0FFF1F92
S1130A60EC59F74D25E135E020833183880F991F38
S1130A70FC01E059F74D108211820895E0EAF8E094
S1130A80858188608583A8E5B8E282E01B968C9313
S1130A901B971E96ED91FC911F975A968D919C91F0
S1130AA05B970995823019F0833021F006C00E94CB
S1130AB09F0408950E94B10408950E948704089534
S1130AC0E0EAF8E0848184608483848183608483A1
S1130AD0E8E5F8E280818E7F8083138680E00895C4
S1130AE0CF93DF93E8E5F8E28081877F8083848178
S1130AF09581019731F4E0EAF8E08481846084838D
S1130B0005C0E0EAF8E084818B7F8483E8E5F8E2BD
S1130B1084819581019784839583892BA9F0DF01D2
S1130B20C281D381E0EAF8E08085888312968D91B2
S1130B309C911397019612968D939C93139784819D
S1130B408260848384E026C0A8E5B8E21296ED9121
S1130B50FC9113978091A808808312968D919C91A3
S1130B601397019612968D939C9313978C9184609E
S1130B708C931C96ED91FC911D9758968D919C91A8
S1130B80599709958250823018F40E94CD0402C00E
S1130B900E946005DF91CF910895E0EAF8E0848136
S1130BA083608483E8E5F8E280818E7F8083138606
S1130BB080E00895A8E5B8E28C91877F8C9382E069
S1130BC01B968C931B975096ED91FC9151975C96D4
S1130BD08D919C915D970995823019F0833021F0B5
S1130BE006C00E949F0408950E94B10408950E94C3
S1130BF0CD0508958091A50884FF19C0A8E5B8E241
S1130C005296ED91FC9153975E968D919C915F97CE
S1130C100995823019F0833021F006C00E949F04A8
S1130C2008950E94B10408950E94CD050895E8E551
S1130C30F8E28081877F8083A281B381CD01019610
S1130C40828393838C918093A808848195810197F2
S1130C5084839583892B11F485E0089583E00895B6
S1130C608091A50884FF19C0A8E5B8E25296ED91D9
S1130C70FC9153975E968D919C915F970995823074
S1130C8019F0833021F006C00E949F0408950E9449
S1130C90B10408950E94CD050895A8E5B8E28C91A9
S1130CA084608C931C96ED91FC911D9758968D91C0
S1130CB09C9159970995833039F0843041F0823002
S1130CC049F40E949F0408950E94B10408950E946B
S1130CD0FA0508950E94CD050895AB01BC0182E098
S1130CE00E9419050895E0EAF8E084E1868381EC26
S1130CF0838308959091582891FD36C0E8E5F8E281
S1130D008183892F847F9EE0928724EF31E02087BE
S1130D10318782608460808385E195E0848795874C
S1130D20108E118E86879787128E138E808B918BEF
S1130D30148E158E828B938B168E178E87E195E019
S1130D40848B958B10A211A2E0EAF8E0848188607C
S1130D5084838581816085838581806C858383819B
S1130D60806C838380E0089581E008958091A508D4
S1130D7082FF07C0E8E5F8E280818E7F808382E00D
S1130D8083878091582880FD17C0E8E5F8E28D7FBD
S1130D9080838FEF8183A0EAB8E015968C91159734
S1130DA0806C15968C93159713968C9113978F736B
S1130DB013968C938385089581E008959C01909106
S1130DC0582892FF09C0E8E5F8E22283338364835C
S1130DD07583892F8B7F808308959091582890FD87
S1130DE011C0E8E5F8E291609083882321F081E066
S1130DF08093622803C082E0809362280E94E50405
S1130E0080E0089581E0089581E00E94ED06089550
S1130E1080E00E94ED0608951F920F920FB60F9284
S1130E2011242F933F934F935F936F937F938F93EB
S1130E309F93AF93BF93EF93FF930E94E504FF91B9
S1130E40EF91BF91AF919F918F917F916F915F913E
S1130E504F913F912F910F900FBE0F901F901895B7
S1130E60EF92FF920F931F93CF93C82F8B017A01B8
S1130E708C2F0E947A068823D9F3B701C8010E94F7
S1130E80DE0660E070E080E797E00E946D060E9455
S1130E9008070E94B6068130E1F3CF911F910F91AC
S1130EA0FF90EF900895EF92FF920F931F93CF93CB
S1130EB0C82F8B017A018C2F0E947A068823D9F3DC
S1130EC0B701C8010E94DE060E9404070E94B6060C
S1130ED08130E1F3CF911F910F91FF90EF9008952E
S1130EE083E008950E94C608882361F0E0919F285A
S1130EF0E33240F491E09E0F90939F28F0E0E45891
S1130F00F74D8083089561E082E797E00E9423080B
S1130F10089510929F28ECE7F8E28FE998E2119285
S1130F20E817F907E1F708958CE798E20895009728
S1130F3069F020E030E0EDE3F9E43197F1F700C027
S1130F4000002F5F3F4F82179307A9F70895FC0114
S1130F5064BF4083089580E00895E0E8FAE080E00B
S1130F609CE38487958781E0858383E4808380E0A4
S1130F70089590910008E091C328EF5FE770809195
S1130F80C228E81759F0E093C328F0E0EC53F74D7A
S1130F9090838091C1288F5F8093C12808958091A8
S1130FA0B628882389F0E091B728EF5FE770E093D3
S1130FB0B728F0E0E754F74D8081809302088091D0
S1130FC0B62881508093B6288091B628811105C037
S1130FD0E0E0F8E085818F7D858308959091600835
S1130FE0E091AD28EF5FE7708091AC28E81759F0E5
S1130FF0E093AD28F0E0E255F74D90838091AB2863
S11310008F5F8093AB2808958091A028882389F06E
S1131010E091A128EF5FE770E093A128F0E0ED559F
S1131020F74D8081809362088091A028815080933D
S1131030A0288091A028811105C0E0E6F8E0858110
S11310408F7D85830895613019F0623031F0089501
S11310508093382890933928089580933628909364
S1131060372808951F920F920FB60F9211242F93D1
S11310703F934F935F936F937F938F939F93AF931C
S1131080BF93EF93FF93E0913828F091392830977C
S113109009F00995FF91EF91BF91AF919F918F91C5
S11310A07F916F915F914F913F912F910F900FBE60
S11310B00F901F9018951F920F920FB60F92112444
S11310C02F933F934F935F936F937F938F939F934C
S11310D0AF93BF93EF93FF93E0913628F0913728B5
S11310E0309709F00995FF91EF91BF91AF919F91CE
S11310F08F917F916F915F914F913F912F910F90BD
S11311000FBE0F901F9018952091B8282F5F27705D
S11311109091B6289830E1F3E22FF0E0E754F74DD0
S113112080832093B8280FB6F8940F928091B62844
S11311308F5F8093B6280F900FBEE0E0F8E08581C2
S11311408062858308950E94840880E090E0089579
S1131150E0E0F8E08BE591E08087918780E8858383
S113116080EC86831092C2281092C3281092C12862
S11311701092B7281092B8281092B6288AE398E201
S11311808093F0299093F12980E0089580910008DC
S113119008951F920F920FB60F9211242F933F932D
S11311A04F935F936F937F938F939F93AF93BF936B
S11311B0EF93FF93E0912628F0912728309709F0C8
S11311C00995FF91EF91BF91AF919F918F917F917D
S11311D06F915F914F913F912F910F900FBE0F90A0
S11311E01F9018951F920F920FB60F9211242F93F0
S11311F03F934F935F936F937F938F939F93AF939B
S1131200BF93EF93FF93E0912428F0912528309722
S113121009F00995FF91EF91BF91AF919F918F9143
S11312207F916F915F914F913F912F910F900FBEDE
S11312300F901F9018952091A2282F5F27709091EE
S1131240A0289830E1F3E22FF0E0ED55F74D8083CC
S11312502093A2280FB6F8940F928091A0288F5F54
S11312608093A0280F900FBEE0E6F8E085818062AD
S1131270858308950E941B0980E090E00895E0E6CC
S1131280F8E083E298E08087918780E8858380ECAA
S113129086831092AC281092AD281092AB2810923D
S11312A0A1281092A2281092A02888E298E28093A4
S11312B0F0299093F12980E008955058BB27AA277C
S11312C00E9475090C94900A0E94820A38F00E94C8
S11312D0890A20F039F49F3F19F426F40C947F0A0C
S11312E00EF4E095E7FB0C94790AE92F0E94A10A19
S11312F058F3BA17620773078407950720F079F447
S1131300A6F50C94C30A0EF4E0950B2EBA2FA02D6B
S11313100B01B90190010C01CA01A0011124FF279E
S1131320591B99F0593F50F4503E68F11A16F04099
S1131330A22F232F342F4427585FF3CF4695379598
S11313402795A795F0405395C9F77EF41F16BA0B5D
S1131350620B730B840BBAF09150A1F0FF0FBB1F0B
S1131360661F771F881FC2F70EC0BA0F621F731F54
S1131370841F48F4879577956795B795F7959E3FB1
S113138008F0B0CF9395880F08F09927EE0F979542
S1131390879508950E94DE090C94900A0E94890A98
S11313A058F00E94820A40F029F45F3F29F00C941F
S11313B0790A51110C94C40A0C947F0A0E94A10A60
S11313C068F39923B1F3552391F3951B550BBB2770
S11313D0AA2762177307840738F09F5F5F4F220FB5
S11313E0331F441FAA1FA9F335D00E2E3AF0E0E8AC
S11313F032D091505040E695001CCAF72BD0FE2FF6
S113140029D0660F771F881FBB1F26173707480789
S1131410AB07B0E809F0BB0B802DBF01FF27935841
S11314205F4F3AF09E3F510578F00C94790A0C9482
S1131430C40A5F3FE4F3983ED4F3869577956795A5
S1131440B795F7959F5FC9F7880F911D9695879576
S113145097F90895E1E0660F771F881FBB1F621795
S113146073078407BA0720F0621B730B840BBA0B53
S1131470EE1F88F7E0950895E89409C097FB3EF4C1
S113148090958095709561957F4F8F4F9F4F9923CD
S1131490A9F0F92F96E9BB279395F695879577954B
S11314A06795B795F111F8CFFAF4BB0F11F460FF0B
S11314B01BC06F5F7F4F8F4F9F4F16C0882311F063
S11314C096E911C0772321F09EE8872F762F05C077
S11314D0662371F096E8862F70E060E02AF09A9512
S11314E0660F771F881FDAF7880F9695879597F907
S11314F0089597F99F6780E870E060E008959FEF92
S113150080EC089500240A94161617061806090696
S1131510089500240A941216130614060506089565
S1131520092E0394000C11F4882352F0BB0F40F4ED
S1131530BF2B11F460FF04C06F5F7F4F8F4F9F4F2D
S1131540089557FD9058440F551F59F05F3F71F0AF
S11315504795880F97FB991F61F09F3F79F0879516
S11315600895121613061406551FF2CF4695F1DF9F
S113157008C0161617061806991FF1CF869571052F
S1131580610508940895E894BB2766277727CB0163
S113159097F908950E94DD0A0C94900A0E94820A29
S11315A038F00E94890A20F0952311F00C94790AEE
S11315B00C947F0A11240C94C40A0E94A10A70F3AB
S11315C0959FC1F3950F50E0551F629FF001729FE4
S11315D0BB27F00DB11D639FAA27F00DB11DAA1FF3
S11315E0649F6627B00DA11D661F829F2227B00D40
S11315F0A11D621F739FB00DA11D621F839FA00DCB
S1131600611D221F749F3327A00D611D231F849F1A
S1131610600D211D822F762F6A2F11249F57504071
S11316209AF0F1F088234AF0EE0FFF1FBB1F661FEC
S1131630771F881F91505040A9F79E3F510580F0B5
S11316400C94790A0C94C40A5F3FE4F3983ED4F3F3
S1131650869577956795B795F795E7959F5FC1F759
S1131660FE2B880F911D9695879597F90895A0E113
S1131670B0E0EDE3FBE00C94B40E7C011B016A01C5
S1131680FC0116821782838181FF44C39E012F5F70
S11316903F4F3901F7019381F10193FD859193FF48
S11316A081911F01882309F431C3853239F493FDF4
S11316B0859193FF81911F01853239F4B70190E040
S11316C00E94F20F56016501E5CF10E0512C912CD8
S11316D0FFE1F915D8F08B3279F038F4803279F0E3
S11316E08332A1F4F92DF0612EC08D3261F0803384
S11316F069F4292D21602DC0392D3260932E892D56
S11317008460982E2AC0E92DE86015C097FC2DC08E
S113171020ED280F2A3088F496FE06C03AE0139F85
S1131720200D1124122F19C08AE0589E200D112477
S1131730522EE92DE0629E2E10C08E3231F496FCBA
S1131740E5C2F92DF0649F2E08C08C3621F4292DB2
S11317502068922E02C0883641F4F10193FD8591F0
S113176093FF81911F018111B3CF9BEB980F9330AD
S113177020F4992D9061805E07C09BE9980F933007
S113178008F066C1992D9F7E96FF16E09F73992EEF
S1131790853619F49064992E08C0863621F4392FC1
S11317A03068932E02C01111115097FE07C01C33EC
S11317B050F444244394410E27E00BC0183038F011
S11317C027E017E005C027E09CE3492E02C0212F43
S11317D0412C560184E0A80EB11CF6016081718190
S11317E082819381042DA3010E94E50E6C01F9818D
S11317F0FC87F0FF02C0F3FF06C091FC06C092FE16
S113180006C000E205C00DE203C00BE201C000E027
S11318108C858C7019F001115AC29BC297FE10C0BE
S11318204C0CFC85F4FF04C08A81813309F44A948A
S1131830141474F528E0241578F588E0482E2CC09B
S113184096FC2AC0812F90E08C159D059CF03CEFFE
S1131850C3163FEFD30674F0892D8068982E0AC012
S1131860E2E0F0E0EC0FFD1FE10FF11D8081803319
S113187019F411501111F4CF97FE0EC0442443946F
S1131880410E812F90E0C816D9062CF41C1904C00F
S11318904424439401C010E097FE06C01C141D04A8
S11318A034F4C601019605C085E090E002C081E0F1
S11318B090E001110196112331F0212F30E02F5FC8
S11318C03F4F820F931F252D30E08217930714F4A6
S11318D0581A01C0512C892D897049F4552039F0CA
S11318E0B70180E290E00E94F20F5A94F7CF0023F0
S11318F029F0B701802F90E00E94F20F93FC09C0F9
S1131900552039F0B70180E390E00E94F20F5A9419
S1131910F7CF97FE4CC04601D7FE02C0812C912C14
S1131920C60188199909F301E80FF91FED87FE87AD
S11319309601241931092F87388B012F10E0119556
S1131940019511093FEF8316930629F4B7018EE23E
S113195090E00E94F20FC814D9044CF08F85988946
S11319608815990524F4ED85FE85818101C080E305
S1131970F1E08F1A91082D853E852F5F3F4F2D870B
S11319803E87801691062CF0B70190E00E94F20F7A
S1131990D9CFC814D90441F49A81963320F49533ED
S11319A019F43C8534FF81E3B70190E04EC08A818D
S11319B0813319F09C859F7E9C87B70190E00E943B
S11319C0F20F111105C094FC18C085E690E017C011
S11319D0B7018EE290E00E94F20F1E5F82E001E008
S11319E0080FF301E80FF11D8081B70190E00E9418
S11319F0F20F802F0113F3CFE6CF85E490E0B70117
S1131A000E94F20FD7FC06C0C114D10441F4EC8546
S1131A10E4FF05C0D194C194D1088DE201C08BE2EA
S1131A20B70190E00E94F20F80E32AE0C216D104CD
S1131A302CF08F5FFAE0CF1AD108F7CFB70190E00E
S1131A400E94F20FB701C601C0960E94F20F54C162
S1131A50833631F0833779F0833509F056C020C0DE
S1131A60560132E0A30EB11CF6018081898301E0A6
S1131A7010E0630112C05601F2E0AF0EB11CF60192
S1131A80C080D18096FE03C0612F70E002C06FEF6A
S1131A907FEFC6010E94E70F8C01F92DFF7714C078
S1131AA0560122E0A20EB11CF601C080D18096FE40
S1131AB003C0612F70E002C06FEF7FEFC6010E9488
S1131AC0BD0F8C01F92DF0689F2EF3FD1AC0852DF2
S1131AD090E008171907A8F4B70180E290E00E948B
S1131AE0F20F5A94F4CFF60197FC859197FE8191F9
S1131AF06F01B70190E00E94F20F51105A94015007
S1131B0011090115110579F7F7C0843611F08936EA
S1131B1061F5560197FE09C024E0A20EB11CF6013E
S1131B2060817181828193810AC0F2E0AF0EB11CA1
S1131B30F60160817181072E000C880B990BF92D39
S1131B40FF769F2E97FF09C09095809570956195BB
S1131B507F4F8F4F9F4FF0689F2E2AE030E0A30104
S1131B600E947410C82EC6183FC0092D853721F471
S1131B700F7E2AE030E01DC0097F8F3691F018F403
S1131B80883559F0C3C0803719F0883711F0BEC0CA
S1131B90006104FF09C0046007C094FE08C0066029
S1131BA006C028E030E005C020E130E002C020E1BA
S1131BB032E0560107FF09C084E0A80EB11CF6010B
S1131BC0608171818281938108C0F2E0AF0EB11C03
S1131BD0F6016081718180E090E0A3010E9474109D
S1131BE0C82EC6180F77902E96FE0BC0092D0E7FB7
S1131BF0C11650F494FE0AC092FC08C0092D0E7E52
S1131C0005C0DC2C092D03C0DC2C01C0D12E04FF3F
S1131C100DC0FE01EC0DF11D8081803311F4097EAD
S1131C2009C002FF06C0D394D39404C0802F8678E1
S1131C3009F0D39403FD11C000FF06C01C2DD51478
S1131C4080F4150D1D190DC0D51458F4B70180E2A8
S1131C5090E00E94F20FD394F7CFD51410F45D18DE
S1131C6001C0512C04FF10C0B70180E390E00E9432
S1131C70F20F02FF17C001FD03C088E790E002C025
S1131C8088E590E0B7010CC0802F867859F001FFF9
S1131C9002C08BE201C080E207FD8DE2B70190E053
S1131CA00E94F20FC11638F4B70180E390E00E945D
S1131CB0F20F1150F7CFCA94F301EC0DF11D80819E
S1131CC0B70190E00E94F20FC110F5CF15C0F4E007
S1131CD0F51560F584E0581A93FE1FC0011127C062
S1131CE02C8523FF2AC000EA10E0392D3071932E91
S1131CF0F8018491811124C0552009F4E4CCB70182
S1131D0080E290E00E94F20F5A94F6CFF7018681A8
S1131D10978126C08FEF9FEF23C0B70180E290E048
S1131D200E94F20F5A945110F8CFD8CF512CB7011A
S1131D30802F90E00E94F20FD3CF04EA10E0D5CFB9
S1131D4091108052B70190E00E94F20F0F5F1F4F75
S1131D50CFCF23E0251510F483E0BDCF512CC0CFA5
S1131D606096E2E10C94CD0E2F923F924F925F92D7
S1131D706F927F928F929F92AF92BF92CF92DF9297
S1131D80EF92FF920F931F93CF93DF93CDB7DEB7FC
S1131D90CA1BDB0BCDBFDEBF09942A88398848886B
S1131DA05F846E847D848C849B84AA84B984C88473
S1131DB0DF80EE80FD800C811B81AA81B981CE0F6A
S1131DC0D11DCDBFDEBFED010895283008F027E016
S1131DD03327DA01990F311D87FD91600096610563
S1131DE0710539F432602E5F3D9330E32A95E1F7B3
S1131DF008959F3F30F080387105610509F03C5F1C
S1131E003C5F3D93913008F08068911DDF93CF9340
S1131E101F930F93FF92EF92192F987F9695E92FB6
S1131E2096959695E90FFF27EE5FFE4F9927332786
S1131E30EE24FF24A701E70105900894079428F4F1
S1131E40360FE71EF81E491F511D660F771F881FA6
S1131E50991F0694A1F70590079428F4E70EF81E3D
S1131E60491F561FC11D770F881F991F661F0694AF
S1131E70A1F70590079428F4F80E491F561FC71FB1
S1131E80D11D880F991F661F771F0694A1F705902F
S1131E90079420F4490F561FC71FD81F990F661FB8
S1131EA0771F881F0694A9F784911095177041F045
S1131EB0D695C79557954795F794E7941A95C1F722
S1131EC0E8EAF0E068941590159135916591959143
S1131ED005907FE27395E118F10A430B560BC90B89
S1131EE0D009C0F7E10CF11E431F561FC91FD01DB6
S1131EF07EF4703311F48A95E6CFE894015030F003
S1131F00080F0AF40027021708F4202F2395022F44
S1131F107A3328F079E37D932A95E9F710C07D930D
S1131F202A9589F60694979567953795179517948A
S1131F30E118F10A430B560BC90BD00998F023950D
S1131F407E9173957A3308F070E37C932013B8F78D
S1131F507E9170617D9330F0839571E37D9370E39E
S1131F602A95E1F71124EF90FF900F911F91CF91E3
S1131F70DF91992787FD90950895FC0105906150A4
S1131F8070400110D8F7809590958E0F9F1F08958B
S1131F90FB01DC018D91019080190110D9F3990B9B
S1131FA00895FB01DC0101900D920020E1F70895F2
S1131FB0FB01DC014150504048F001900D9200209B
S1131FC0C9F701C01D9241505040E0F70895FC014B
S1131FD06150704001900110D8F7809590958E0F54
S1131FE09F1F08950F931F93CF93DF93FB012381CA
S1131FF021FD03C08FEF9FEF2CC022FF16C0468146
S11320005781248135814217530744F4A081B1815B
S11320109D012F5F3F4F208331838C93268137812D
S11320202F5F3F4F2683378314C08B01EC01FB01E4
S11320300084F185E02D0995892BE1F6D8011696E7
S11320408D919C911797019616968D939C93179753
S1132050CE01DF91CF911F910F910895A0E0B0E0E0
S1132060E4E3F0E10C94C40EAE014B5F5F4FFA0160
S113207061917191AF018091F0299091F1290E94B1
S1132080370BE2E00C94DD0EAEE0B0E0EAE4F0E100
S11320900C94C20E0D891E898F89988D26E02C839D
S11320A009831A8397FF02C080E090E801978D832B
S11320B09E83AE01455E5F4F698D7A8DCE01019698
S11320C00E94370B4D815E8157FD0AC02F813885F0
S11320D0421753070CF49A01F801E20FF31F108220
S11320E02E96E4E00C94DB0EFA01AA27283051F175
S11320F0203181F1E8946F936E7F6E5F7F4F8F4F35
S11321009F4FAF4FB1E03ED0B4E03CD0670F781F93
S1132110891F9A1FA11D680F791F8A1F911DA11D78
S11321206A0F711D811D911DA11D20D009F46894B1
S11321303F912AE0269F11243019305D3193DEF659
S1132140CF010895462F4770405D4193B3E00FD00F
S1132150C9F7F6CF462F4F70405D4A3318F0495DFA
S113216031FD4052419302D0A9F7EACFB4E0A695DD
S11321709795879577956795BA95C9F700976105FF
S1132180710508959B01AC010A2E06945795479555
S113219037952795BA95C9F7620F731F841F951F4A
S10B21A0A01D0895F894FFCF7F
S11321A86E6F5F667265655F63680D0A006F6B0D1D
S11321B80A0025732025730025730D0A00616363E3
S11321C865707465640D0A00756E636E662032323C
S11321D8006D6163207478006D61632073657420F9
S11321E864722035006D61632073617665007374D1
S11321F8617475730062616E64006D616320676564
S113220874006D6163206A6F696E20616270006D8D
S113221861632073657420617070736B6579006DF8
S1132228616320736574206E776B736B6579006DD9
S11322386163207365742064657661646472004622
S113224830393832323737443432434139434331F1
S113225832444545424538414346383236423200D5
S113226837453232443443393033353844433443C0
S113227832423343393245323743333741303646B5
S113228800323630353141423000543A20252E325E
S11322986620646567432C2052483A20252E32660E
S10B22A80D0A002578257800D9
S11322B097049F04B104FA0570053006AE04BC040B
S11322C0AB04CD05BF04C6046005CD048704DA055C
S11322D03E05D4040408EE070000000200000000DC
S11322E03A0900000000CF07B9070000000200000F
S10B22F00000A3080000000037
S9030000FC
